{"abi":[{"type":"constructor","inputs":[{"name":"_ticketPrice","type":"uint256","internalType":"uint256"}],"stateMutability":"nonpayable"},{"type":"receive","stateMutability":"payable"},{"type":"function","name":"getParticipants","inputs":[],"outputs":[{"name":"","type":"address[]","internalType":"address[]"}],"stateMutability":"view"},{"type":"function","name":"getWinners","inputs":[],"outputs":[{"name":"","type":"address[]","internalType":"address[]"}],"stateMutability":"view"},{"type":"function","name":"manager","inputs":[],"outputs":[{"name":"","type":"address","internalType":"address"}],"stateMutability":"view"},{"type":"function","name":"participants","inputs":[{"name":"","type":"uint256","internalType":"uint256"}],"outputs":[{"name":"","type":"address","internalType":"address"}],"stateMutability":"view"},{"type":"function","name":"participate","inputs":[],"outputs":[],"stateMutability":"payable"},{"type":"function","name":"pickWinners","inputs":[{"name":"numberOfWinners","type":"uint256","internalType":"uint256"}],"outputs":[],"stateMutability":"nonpayable"},{"type":"function","name":"ticketPrice","inputs":[],"outputs":[{"name":"","type":"uint256","internalType":"uint256"}],"stateMutability":"view"},{"type":"function","name":"updateTicketPrice","inputs":[{"name":"_ticketPrice","type":"uint256","internalType":"uint256"}],"outputs":[],"stateMutability":"nonpayable"},{"type":"function","name":"winners","inputs":[{"name":"","type":"uint256","internalType":"uint256"}],"outputs":[{"name":"","type":"address","internalType":"address"}],"stateMutability":"view"}],"bytecode":{"object":"0x608060405234801561000f575f80fd5b5060405161086038038061086083398101604081905261002e91610047565b5f80546001600160a01b0319163317905560035561005e565b5f60208284031215610057575f80fd5b5051919050565b6107f58061006b5f395ff3fe608060405260043610610087575f3560e01c80635aa68ac0116100575780635aa68ac014610136578063a2fb117514610157578063d11711a214610176578063df15c37e1461017e578063f02137c814610192575f80fd5b80631209b1f61461009a57806313123d52146100c257806335c1d349146100e1578063481c6a7514610118575f80fd5b36610096576100946101b1565b005b5f80fd5b3480156100a5575f80fd5b506100af60035481565b6040519081526020015b60405180910390f35b3480156100cd575f80fd5b506100946100dc36600461064c565b610249565b3480156100ec575f80fd5b506101006100fb36600461064c565b6104c1565b6040516001600160a01b0390911681526020016100b9565b348015610123575f80fd5b505f54610100906001600160a01b031681565b348015610141575f80fd5b5061014a6104e9565b6040516100b99190610663565b348015610162575f80fd5b5061010061017136600461064c565b610549565b6100946101b1565b348015610189575f80fd5b5061014a610558565b34801561019d575f80fd5b506100946101ac36600461064c565b6105b6565b60035434146102075760405162461bcd60e51b815260206004820152601760248201527f7469636b65745072696365206e6f74206d61746368656400000000000000000060448201526064015b60405180910390fd5b6001805480820182555f919091527fb10e2d527612073b26eecdfd717e6a320cf44b4afac2b0732d9fcbe2b7fa0cf60180546001600160a01b03191633179055565b5f546001600160a01b031633146102725760405162461bcd60e51b81526004016101fe906106af565b6001546102c15760405162461bcd60e51b815260206004820152601e60248201527f4e6f207061727469636970616e747320696e20746865206c6f7474657279000060448201526064016101fe565b6001548111156103135760405162461bcd60e51b815260206004820152601760248201527f4e6f7420656e6f756768207061727469636970616e747300000000000000000060448201526064016101fe565b61031e60025f610616565b5f5b8181101561043e576001545f906103356105e4565b61033f9190610706565b905060026001828154811061035657610356610719565b5f918252602080832090910154835460018181018655948452919092200180546001600160a01b0319166001600160a01b03909216919091179055805461039e90829061072d565b815481106103ae576103ae610719565b5f91825260209091200154600180546001600160a01b0390921691839081106103d9576103d9610719565b905f5260205f20015f6101000a8154816001600160a01b0302191690836001600160a01b03160217905550600180548061041557610415610752565b5f8281526020902081015f1990810180546001600160a01b031916905501905550600101610320565b505f61044a8247610766565b90505f5b6002548110156104b1576002818154811061046b5761046b610719565b5f9182526020822001546040516001600160a01b039091169184156108fc02918591818181858888f193505050501580156104a8573d5f803e3d5ffd5b5060010161044e565b506104bd60015f610616565b5050565b600181815481106104d0575f80fd5b5f918252602090912001546001600160a01b0316905081565b6060600180548060200260200160405190810160405280929190818152602001828054801561053f57602002820191905f5260205f20905b81546001600160a01b03168152600190910190602001808311610521575b5050505050905090565b600281815481106104d0575f80fd5b6060600280548060200260200160405190810160405280929190818152602001828054801561053f57602002820191905f5260205f209081546001600160a01b03168152600190910190602001808311610521575050505050905090565b5f546001600160a01b031633146105df5760405162461bcd60e51b81526004016101fe906106af565b600355565b5f4260016040516020016105f9929190610779565b604051602081830303815290604052805190602001205f1c905090565b5080545f8255905f5260205f20908101906106319190610634565b50565b5b80821115610648575f8155600101610635565b5090565b5f6020828403121561065c575f80fd5b5035919050565b602080825282518282018190525f9190848201906040850190845b818110156106a35783516001600160a01b03168352928401929184019160010161067e565b50909695505050505050565b60208082526023908201527f4f6e6c79206d616e616765722063616e2063616c6c20746869732066756e637460408201526234b7b760e91b606082015260800190565b634e487b7160e01b5f52601260045260245ffd5b5f82610714576107146106f2565b500690565b634e487b7160e01b5f52603260045260245ffd5b8181038181111561074c57634e487b7160e01b5f52601160045260245ffd5b92915050565b634e487b7160e01b5f52603160045260245ffd5b5f82610774576107746106f2565b500490565b8281525f60208083018454855f5260205f205f5b828110156107b25781546001600160a01b03168452928401926001918201910161078d565b509197965050505050505056fea2646970667358221220947e03a9ca02b82f09d656b29cd544f0db535e49b9d0488d235d05fa5c9b800764736f6c63430008180033","linkReferences":{}},"methodIdentifiers":{"getParticipants()":"5aa68ac0","getWinners()":"df15c37e","manager()":"481c6a75","participants(uint256)":"35c1d349","participate()":"d11711a2","pickWinners(uint256)":"13123d52","ticketPrice()":"1209b1f6","updateTicketPrice(uint256)":"f02137c8","winners(uint256)":"a2fb1175"},"id":0}