{"abi":[{"type":"constructor","inputs":[],"stateMutability":"nonpayable"},{"type":"receive","stateMutability":"payable"},{"type":"function","name":"getParticipants","inputs":[],"outputs":[{"name":"","type":"address[]","internalType":"address[]"}],"stateMutability":"view"},{"type":"function","name":"getWinners","inputs":[],"outputs":[{"name":"","type":"address[]","internalType":"address[]"}],"stateMutability":"view"},{"type":"function","name":"manager","inputs":[],"outputs":[{"name":"","type":"address","internalType":"address"}],"stateMutability":"view"},{"type":"function","name":"participants","inputs":[{"name":"","type":"uint256","internalType":"uint256"}],"outputs":[{"name":"","type":"address","internalType":"address"}],"stateMutability":"view"},{"type":"function","name":"participate","inputs":[],"outputs":[],"stateMutability":"payable"},{"type":"function","name":"pickWinners","inputs":[{"name":"numberOfWinners","type":"uint256","internalType":"uint256"}],"outputs":[],"stateMutability":"nonpayable"},{"type":"function","name":"ticketPrice","inputs":[],"outputs":[{"name":"","type":"uint256","internalType":"uint256"}],"stateMutability":"view"},{"type":"function","name":"winners","inputs":[{"name":"","type":"uint256","internalType":"uint256"}],"outputs":[{"name":"","type":"address","internalType":"address"}],"stateMutability":"view"}],"bytecode":{"object":"0x6080604052670de0b6b3a764000060035534801561001b575f80fd5b505f80546001600160a01b031916331790556107a48061003a5f395ff3fe60806040526004361061007c575f3560e01c80635aa68ac01161004c5780635aa68ac01461012b578063a2fb11751461014c578063d11711a21461016b578063df15c37e14610173575f80fd5b80631209b1f61461008f57806313123d52146100b757806335c1d349146100d6578063481c6a751461010d575f80fd5b3661008b57610089610187565b005b5f80fd5b34801561009a575f80fd5b506100a460035481565b6040519081526020015b60405180910390f35b3480156100c2575f80fd5b506100896100d1366004610636565b610223565b3480156100e1575f80fd5b506100f56100f0366004610636565b6104d7565b6040516001600160a01b0390911681526020016100ae565b348015610118575f80fd5b505f546100f5906001600160a01b031681565b348015610136575f80fd5b5061013f6104ff565b6040516100ae919061064d565b348015610157575f80fd5b506100f5610166366004610636565b61055f565b610089610187565b34801561017e575f80fd5b5061013f61056e565b34650da475abf000146101e15760405162461bcd60e51b815260206004820152601c60248201527f5469636b657420707269636520697320302e303030303135204554480000000060448201526064015b60405180910390fd5b6001805480820182555f919091527fb10e2d527612073b26eecdfd717e6a320cf44b4afac2b0732d9fcbe2b7fa0cf60180546001600160a01b03191633179055565b5f546001600160a01b031633146102885760405162461bcd60e51b815260206004820152602360248201527f4f6e6c79206d616e616765722063616e2063616c6c20746869732066756e637460448201526234b7b760e91b60648201526084016101d8565b6001546102d75760405162461bcd60e51b815260206004820152601e60248201527f4e6f207061727469636970616e747320696e20746865206c6f7474657279000060448201526064016101d8565b6001548111156103295760405162461bcd60e51b815260206004820152601760248201527f4e6f7420656e6f756768207061727469636970616e747300000000000000000060448201526064016101d8565b61033460025f610600565b5f5b81811015610454576001545f9061034b6105cc565b61035591906106ad565b905060026001828154811061036c5761036c6106c0565b5f918252602080832090910154835460018181018655948452919092200180546001600160a01b0319166001600160a01b0390921691909117905580546103b49082906106d4565b815481106103c4576103c46106c0565b5f91825260209091200154600180546001600160a01b0390921691839081106103ef576103ef6106c0565b905f5260205f20015f6101000a8154816001600160a01b0302191690836001600160a01b03160217905550600180548061042b5761042b6106f9565b5f8281526020902081015f1990810180546001600160a01b031916905501905550600101610336565b505f610460824761070d565b90505f5b6002548110156104c75760028181548110610481576104816106c0565b5f9182526020822001546040516001600160a01b039091169184156108fc02918591818181858888f193505050501580156104be573d5f803e3d5ffd5b50600101610464565b506104d360015f610600565b5050565b600181815481106104e6575f80fd5b5f918252602090912001546001600160a01b0316905081565b6060600180548060200260200160405190810160405280929190818152602001828054801561055557602002820191905f5260205f20905b81546001600160a01b03168152600190910190602001808311610537575b5050505050905090565b600281815481106104e6575f80fd5b6060600280548060200260200160405190810160405280929190818152602001828054801561055557602002820191905f5260205f209081546001600160a01b03168152600190910190602001808311610537575050505050905090565b5f444260016040516020016105e393929190610720565b604051602081830303815290604052805190602001205f1c905090565b5080545f8255905f5260205f209081019061061b919061061e565b50565b5b80821115610632575f815560010161061f565b5090565b5f60208284031215610646575f80fd5b5035919050565b602080825282518282018190525f9190848201906040850190845b8181101561068d5783516001600160a01b031683529284019291840191600101610668565b50909695505050505050565b634e487b7160e01b5f52601260045260245ffd5b5f826106bb576106bb610699565b500690565b634e487b7160e01b5f52603260045260245ffd5b818103818111156106f357634e487b7160e01b5f52601160045260245ffd5b92915050565b634e487b7160e01b5f52603160045260245ffd5b5f8261071b5761071b610699565b500490565b8381525f6020846020840152604083018454855f5260205f205f5b828110156107605781546001600160a01b03168452928401926001918201910161073b565b50919897505050505050505056fea264697066735822122021f02f126635828e7e6122256d1d4563cce8ad19a908dd5aef89e1713715e14b64736f6c63430008180033","linkReferences":{}},"methodIdentifiers":{"getParticipants()":"5aa68ac0","getWinners()":"df15c37e","manager()":"481c6a75","participants(uint256)":"35c1d349","participate()":"d11711a2","pickWinners(uint256)":"13123d52","ticketPrice()":"1209b1f6","winners(uint256)":"a2fb1175"},"id":0}